:020000040800F2
:1020000050020020DDA000088D2100087D2100087D
:1020100081210008852100088921000800000000B6
:1020200000000000000000000000000091210008F6
:102030009521000800000000992100089D2100085A
:1020400025A1000825A1000825A1000825A1000858
:1020500025A1000825A1000825A1000825A1000848
:1020600025A1000825A1000825A1000825A1000838
:1020700025A1000825A1000825A1000825A1000828
:1020800025A1000825A1000825A1000825A1000818
:1020900025A1000825A1000825A1000825A1000808
:1020A00025A10008A921000825A1000825A10008F4
:1020B00025A1000825A1000825A1000825A10008E8
:1020C00025A1000825A1000825A1000825A10008D8
:1020D00025A1000825A1000825A1000825A10008C8
:1020E00025A1000825A1000825A100080000000086
:1020F00000000000000000000000000000000000E0
:1021000000000000000000005FF808F130B40B4B45
:10211000054618682C4644F8040B988800222B4684
:1021200013F8011B0A44A34292B2F9D1904202D0A3
:1021300000232B806B8030BC704700BF00BC0108BF
:1021400038B50546044607F043FD0A4807F080FD10
:1021500055F8041B074807F09DFD002114F8013BCA
:102160001944AC4289B2F9D10348BDE8384007F0C0
:10217000C1BD00BF00BC010804BC0108FEE700BFF0
:10218000FEE700BFFEE700BFFEE700BF704700BFED
:10219000704700BF704700BF704700BF014801F0A3
:1021A000FBB800BF60020020554B2DE9F0031A8AEE
:1021B000D60702D4BDE8F0037047524A5249147959
:1021C0004FF480504FF6FE751D8208614861002C67
:1021D00052D153884D48C3F30B0343F410434C4C86
:1021E000538083814B48A6688C684B4B90F8401015
:1021F00014F4006F0CBF0227002790F8410000295B
:10220000196B0CBF0025022586F480565C6B2843B1
:10221000C6F300364D1C3E4304EB44040127032D56
:1022200046EA000603EBC404177105D95F6BCD1EA7
:10223000013707F001075F631D63384BF5071F780F
:1022400007F0010725D4002F57D1B94604EB410C04
:10225000BCF808805D784FEA2818B60783F800902C
:10226000A2F8008005F0010517D4002D42D0042506
:102270002E464FF0400815E01388A1F55441C3F3F2
:102280000B030343002013801071BDE8F0038B8122
:1022900070476FB30127B946D8E725BB03252E4603
:1022A0004FF0300810F0010F0CBF4FF000094FF055
:1022B000080910F0020FBCF810C048EA07070CBF6D
:1022C0004FF000084FF0080847EA0907601848EA8D
:1022D000050567544FEA2C1C5E700571A2F802C018
:1022E000BDE8F003704701252E464FF01008D9E7EE
:1022F0000327AAE7A8462E46D4E70427B946A5E750
:10230000002C014058020020000C01400038004021
:102310000008014060020020F8030020380400207B
:102320002DE9F04782462748894605F0D7F8264F21
:10233000DFF89080254D4FEA4906002498F88C314B
:102340005BB3A919A94205D0204A002322F8023B19
:102350009142FAD12B8808EB0402A2F87231B9F14C
:10236000000F13D01A4A0AEB840CA05E00221BB2A5
:10237000C3F5FF437F330CEB02010344023283F3C6
:102380001003B2420B8101D0AB5AF0E70234042CA7
:1023900007F2A447D2D1BDE8F087BB690AEB44013C
:1023A000DA0709D55B10FA58F8187B6952F803C0B0
:1023B000064A4B46E047CDE707EB6300D7F814C069
:1023C000F6E700BF600200203C040020500200201D
:1023D000F40300202DE9F041164F012240F2ED21D7
:1023E000384605F0F1FA144B002414481C60144DD3
:1023F00005F0C6F9134B4FF00108134E13485C6308
:102400001C63C3F8388005F06DF92846FFF77EFE9F
:102410002146304600F064FC06F2A440414600F03C
:102420005FFC29460A4803F08FF93846BDE8F041C1
:1024300005F01ABBF0030020840D002034040020B6
:10244000F4030020F80300203C0400205802002080
:102450006002002008B5FFF7BDFF0D4C0D4805F0E8
:1024600069F8A26B636B9A42F8D0A06B042100EB71
:10247000400004EBC000FFF753FFA36B013303F0F0
:102480000103A363A26B636B9A42EED1E6E700BF40
:10249000F803002060020020012A2DE9F00131D06C
:1024A000B1F80480B1F800C04F88CE880023022123
:1024B00001224FEA6808032447F6FF75A0F8288038
:1024C000A0F834C0C7860687A0F85C40A0F85E106C
:1024D00080F8441083844385A0F86230A0F860300F
:1024E000C58480F8452080F84620B0F94C30A342DE
:1024F00005DD0023A0F84C304365A0F85030BDE85E
:10250000F00170470E884D880023022447F6FF71C2
:102510008686C58680F8442080F84520A0F85C4077
:10252000A0F85E3083840385A0F86230A0F86030A4
:10253000C184DAE7012A30B430D0CB884C88C3F5A7
:102540007F43FF3303FB03F504FB04F48A882D0C5F
:10255000098802FB02F203FB05F3240CA1F50041FC
:1025600004FB04F409B2C1EBC101920C9B0C0912EB
:1025700002EB4202240E0125C3F5FF4301F5786109
:1025800002F50072C0F8B44180F8AC51C0F8CC112B
:10259000A0F8B031C0F8D02130BC70474B88098812
:1025A000C3F57F43FF3303FB03F4491001F50051EA
:1025B000240C01FB01F103FB04F3890C01EB410145
:1025C0009B0C4FF47865232401F50071C3F5FF439C
:1025D000C0F8CC51C0F8B441C0F8D01180F8AC219B
:1025E000A0F8B03130BC7047704700BF012A0FD04F
:1025F0000B88A0F828334B885B10A0F82A338B880F
:102600005B10A0F82C33CB885B13A0F82E337047F7
:102610000023A0F828330B885B10A0F82A330B881E
:102620005B1003F50063A0F82C334B885B13A0F814
:102630002E337047084B10B440F6FF712824002257
:10264000C0F88044C0F88834C0F88414C0F88C24E2
:102650005DF8044B704700BF00C0FF3FF0B4002B93
:1026600040D0D0F880C4D0F88C740B4413E0B5424D
:10267000C0F8945430DDD0F884542413644205FB30
:1026800004F4994247F6FF75C0F89464C0F890448A
:1026900022F8025B26D011F8015BD0F89064AD07F8
:1026A0003C464EBFD0F888543446D0F89454CCEB16
:1026B000040448BFC0F8945465190B4EC0F8904408
:1026C000D5D5D0F884542413644205FB04F40025C6
:1026D000C0F89044C0F89454C5F3CF35994222F81D
:1026E000025BD8D1F0BC70470080FF3F012A70B474
:1026F000264A0C884B8826D02512961CC3F57F43AA
:1027000032F8152036F81550FF33AD1AE4B203FB4A
:1027100003F304FB05F4CD881B0D8988A5F500455E
:1027200002EB2422C3F57F632DB22D0192B20F3349
:102730008903C0F88C54C0F88024C0F88434C0F8F1
:10274000881470BC70472112951CC3F57F4332F882
:10275000112035F81110FF33891A03FB03F3E4B29B
:1027600004FB01F41B0D02EB2422094DC3F57F632A
:102770000F3392B20021C0F88854C0F88434C0F8F6
:102780008024C0F88C1470BC704700BFB4C9000826
:1027900000C0FF3F10B400F29A4200F2A2440023AE
:1027A00022F8023B9442FAD1042280F8993480F84E
:1027B000A23480F898245DF8044B704770B463B37A
:1027C0000B4411F8016B90F89944B5070BD501340F
:1027D00090F8A254E4B280F8994425B1002480F81E
:1027E000A24480F8994490F89854022D04D9B60672
:1027F00044BF012680F8A264A5429CBF002480F853
:10280000994400EB4404B4F99A449942C4EB04445B
:102810004FEA244422F8024BD3D170BC704700BF6A
:102820000B88012AA3F50043B0F89A249BB225D067
:10283000934218BFA0F89A344B88B0F89C24A3F5B3
:1028400000439BB2934218BFA0F89C348B88B0F829
:102850009E24A3F500439BB2934218BFA0F89E3478
:10286000CB88B0F8A024A3F500439BB2934218BFD5
:10287000A0F8A034042380F898347047934218BF1E
:10288000A0F89A344B88B0F89C24A3F500439BB27F
:10289000934218BFA0F89C34022380F89834704704
:1028A00000F2344006F09CBD00F2344006F080BDDA
:1028B00000F54A7006F07ABE00F54A7006F062BE76
:1028C000012A0B4649D00A88B2F5804F32D9B2F5B9
:1028D000004F9ABF1111C1F500610021A0F8021349
:1028E00002EBC202920902F54062A0F804235A8862
:1028F000921002EB4202C2F38D02A0F806239A88DE
:102900005110921002F5005201F58041A0F80A23FF
:10291000A0F80813DB881A0411D4C3F5FF437F33F2
:1029200003FB03F30022C3F38F33A0F80C23A0F8BA
:102930000E3370474FF48061A0F80213D0E7A3F57F
:10294000004303FB03F3C3F34D4303EB8303A0F8FE
:102950000C330023A0F80E33704700F5407009884F
:102960005A8805F02DBA00BF00F5407005F0D4BAC2
:1029700000F5407005F01CBA00F5257005F01ABC92
:1029800000F5257005F0F8BB00F5EC7005F0ECBE25
:1029900000F5EC7005F090BE00F5B87005F0B4B825
:1029A00000F5B87005F07AB8012A10B590F87830C3
:1029B00004462BD0B3B90B8847F6FF72A0F86830F5
:1029C00088884B88A0F50040A4F86C00C98803EB08
:1029D0008303A1F5004109041B14216784F86A30C0
:1029E000626710BD8A884B88A2F500420888A4F867
:1029F0006C20CA8803EB8303A2F500424110120445
:102A00001B146167226784F86A3010BD83B10B889C
:102A10004A8803EB83031B14A2F5004280F86A3056
:102A2000A0F86C20002247F6FF732267636710BD91
:102A30000B8820F8683F498806F0FCFAF2E700BFEF
:102A4000683006F009BB00BF683006F0C7BA00BFA7
:102A5000243006F0F3BB00BF243006F0C9BB00BF32
:102A6000012A0DD00B88A0F836344B88A0F83434F6
:102A70008B885B10A0F83834CB88A0F83A347047C4
:102A80004FF6FF73A0F836340B880022A0F83434D8
:102A90004B88A0F83A245B10A0F83834704700BF88
:102AA000012A70B453D00B8890F86822A3F5004334
:102AB0001BB2C3EBC303C3F30F2303F5D05503F5D8
:102AC000005403F54853A0F82A52A0F84A429BB29A
:102AD000002A3AD1B0F86A525D1B18BF0125A0F850
:102AE0006A328C884B886408B4F5E04F38BF04F52F
:102AF00000744FEAA303C3F5AB4234BFA4B24FF452
:102B0000E4447032A0F8904203F5AB43C0F8882249
:102B1000CA887033C0F88C325309941303F5E2422B
:102B200003F5CF43012104F6FC744832043380F8E6
:102B30006852C0F81842A0F82C22A0F84C3280F855
:102B4000281280F8481270BC70470125C7E790F83A
:102B500068324FF4D0554FF40054A0F82A52A0F830
:102B60004A422BB9B0F96A22B2F5485218BF012285
:102B70004FF4485547F2485446F68433A0F82C42A7
:102B8000A0F86A52A0F84C324D880B886D08B5F554
:102B9000E04F4FEAA30338BF05F50075C3F5AB411D
:102BA00003F5AB434FF0010440F6FE7634BFADB2FF
:102BB0004FF4E4457031703380F8284280F8484281
:102BC000C0F81862A0F8905280F86822C0F8881205
:102BD000C0F88C3270BC7047F8B5044690F8782085
:102BE0000F4661700239D1F1000E5EEB010EDAB9C9
:102BF000BEF1000F18D000F18003C0F8482103F1A6
:102C00008002002043F8040B9A42FAD104F5927333
:102C1000002042F8040B9342FAD104F5A47100227B
:102C200043F8042B9942FAD12C4B07EB470603EBF0
:102C3000C60604F10C0584F878E00FCE0FC596E8BF
:102C40000300022F85E803002AD02069C20733D58C
:102C500040102258E3682044D358984763781A1FDD
:102C6000D2B2012A1CD82278002A2FD06088A588E9
:102C70004FF6E751884209D98D422AD9052B10D049
:102C800020460521FFF7A8FF22780AE04FF6F4312D
:102C900088421ED8042B04D020460421FFF79CFF55
:102CA0002278206AC3070BD540102158E3692044DD
:102CB000CB58A11C9847F8BD04EB6000E368CCE753
:102CC00004EB6000E369A11C9847F8BDA088E58883
:102CD000CEE74FF6F4318D42E3D8DBE788A2000857
:102CE000F8B5B34E05460F46002407E0E35805EB60
:102CF000600018349847B4F5847F0ED033195868B3
:102D0000AB4BC207F2D54010E3582A581834284478
:102D1000D3589847B4F5847FF0D105F5B87004F026
:102D2000BDFE05F5EC7005F0C7FC05F5407005F03B
:102D30003FF8781E4742474185F8007305F5257036
:102D400005F01AFA9B4840F6FF7228210023C5F8C7
:102D50008424C5F88014C5F88C34C5F8880405F1BE
:102D6000680006F03BF905F1240006F041FA05F58C
:102D70004A7006F007FC05F2344006F019FB05F234
:102D80009A4205F2A240002322F8023B9042FAD177
:102D900005F10C07864E3C464FF0040E85F8993439
:102DA00085F8A2342B706B7085F8783085F898E43C
:102DB0000FCE0FC496E8030084E803002869C1071A
:102DC0001CD4EB6805EB600098476B781A1FD2B2F1
:102DD000012A2A781CD9AC1C286AC30714D54010D4
:102DE0002958EB692844CB58214698470A354FF4B7
:102DF000004324F8023BA542F9D1F8BD40102A58FF
:102E0000EB682844D358DFE705EB6000EB69EBE79C
:102E1000002A3CD069884FF6E7508142AC883CD903
:102E200084426CD9052BD6D0634E4FF0050C4FF081
:102E3000000E3C460FCE85F801C085F878E00FC43F
:102E400096E8030084E803002B69DA0700F19F800D
:102E5000EA6805EB630090476B781A1FD2B2012A2B
:102E60003FD82A78002A40F0B480A888E9884FF635
:102E7000E754A04240F29180A14240F28280052BAB
:102E800000F0838028460521FFF7A6FE29E0A988E7
:102E90004FF6E7508142EC88C2D84FF6F4308142B9
:102EA0002DD8042B97D0454E4FF0040C4FF0000E58
:102EB0003C460FCE85F801C085F878E00FC496E84F
:102EC000030084E803002B69DE071DD55B10E95879
:102ED000EA68E8188A5890476B781A1FD2B2012A1C
:102EE0001AD92A78AC1C2B6AD90711D55B10EE5879
:102EF000E969E81876582146B0472A786CE74FF61A
:102F0000F4318C42CDD966E705EB6300EA68E2E76D
:102F100005EB6300EE69EEE72A78002A50D1A88815
:102F2000E9884FF6E754A04237D9A14229D9052BA9
:102F30002BD0214C4FF0050E00260FCC85F801E078
:102F400085F878600FC794E8030087E803002B69D1
:102F5000DC0738D4EA6805EB630090476B781A1FEA
:102F6000D2B2012A2A783BD92B6AD80734D55B1014
:102F7000EC58E969E8186658AC1C2146B0472A7835
:102F8000B1E74FF6F43081420BD9AC1CABE75B10D4
:102F9000E958EA68E8188A585DE74FF6F434A04229
:102FA000EFD8042BF1D0054C4FF0040EC4E700BF5E
:102FB00088A2000800C0FF3F00A30008E8A20008A4
:102FC0006888A988ADE75B10E958EA68E8188A586C
:102FD000C3E76888A9884AE705EB6300EE69CBE799
:102FE0008AB9A888E9884FF6E754A04213D84FF66B
:102FF000F434A0420AD8042BB6D028460421FFF7A7
:10300000EBFD2A78B0E76888A988ECE74FF6F43042
:103010008142A9D8EFE7A142F8D9052BA4D02846D0
:103020000521FFF7D9FD2A789EE700BFF8B5437860
:1030300004461A1FD2B2012A13D9054615F8022BED
:10304000206AC30707D540102158E3692044CB58B4
:1030500029469847F8BD04EB6000E3692946984784
:10306000F8BD0278002A36D0418885884FF6E750AF
:10307000814236D985425AD9052B5CD004F10C0720
:103080007F4E3D464FF0050C4FF0000E0FCE84F8FA
:1030900001C084F878E00FC596E8030085E80300D6
:1030A0002069C6074DD4E36804EB60009847637855
:1030B0001A1FD2B2012A4ED9254615F8022B236ACF
:1030C000D90744D55B10E658E169E01876582946DF
:1030D000B0472278B4E78188C5884FF6E75081422F
:1030E000C8D84FF6F430814221D8042B23D0654E46
:1030F0004FF0040E002704F10C050FCE84F801E018
:1031000084F878700FC596E8030085E8030020690D
:10311000C20712D540102258E3682044D35898477C
:1031200025462046FFF782FF15F8022B88E74FF669
:10313000F4318D42D9D9A51C82E704EB6000E36825
:10314000EDE740102258E3682044D358AEE704EB83
:103150006300E669BBE72278BAB9A088E5884FF634
:10316000E751884214D98D4209D9052B0BD020464E
:1031700005212546FFF730FD15F8022B9FE74FF696
:10318000F4318D4208D9A51C99E76088A588E6E747
:103190004FF6F4318842F2D8042BF4D0394E4FF078
:1031A000040C4FF0000E3D460FCE84F801C084F8A9
:1031B00078E00FC596E8030085E803002369DD0782
:1031C00016D4E26804EB6300904763781A1FD2B20A
:1031D000012A227816D9236AD8070FD55B10E55843
:1031E000E169E0186E58A51C2946B047227866E7C9
:1031F0005B10E158E268E0188A58E5E704EB6300E9
:10320000E669F0E752BBA088E1884FF6E755A8428F
:1032100027D84FF6F435A8422DD8042BDBD0194D12
:103220004FF0040E00260FCD84F801E084F878609A
:103230000FC795E8030087E80300206910F0010F2D
:103240004FEA60001BBF2258E368E368D35820446C
:1032500098472046FFF7EAFE2278BCE76088A188FD
:10326000D3E7A94207D9052BB5D020460521FFF7A2
:10327000B3FC2278AFE74FF6F4308142ABD8CCE70D
:1032800000A30008E8A200082DE9F047064696F8DA
:10329000611190F8600196F86231082286F8641195
:1032A00086F8630186F8653106F5BC711AB106F53A
:1032B000B37006F039FFB6F87091304C4FEA091937
:1032C0002F4B4C449C4206F2631534D90023A6F8D8
:1032D000703106F07DFC2B4C204606F0B9FC2A4BE1
:1032E00004F580649C42F7D1284FDFF8A880254C74
:1032F000B946C4EB050A20465AF80410043406F017
:10330000C9FC4C45F7D106F26F12002115F8013BBC
:103310001944954289B2F9D1384606F0EBFC404693
:10332000B6F8701106F0E6FCB6F870310133A6F875
:103330007031BDE8F08706F04BFC154B24F47F702C
:103340004B4423F47F7320F0030023F0030309F1BF
:103350000064834204F5E03407D004F10C0906F060
:1033600077FC4F4604F10E08C3E7DFF82880074FCB
:10337000C8444F4404F10C09BBE700BF10C001086A
:10338000FFFF010800C00108000002080CC001088E
:10339000FFBF01080EC001082DE9F047984D00F568
:1033A000AA762B6804460133304682B02B6004F0C5
:1033B000D9FA30462246002310F8011B802961D03B
:1033C00000297CD1166B1EB1DFB2012F40F2CC80F8
:1033D0000133042B02F10402EED194F88C31002B5E
:1033E00040F0A38094F860312A68022BC2F3C21225
:1033F000834900F08480032B40F0EC80012A02D046
:10340000D01E42424241296884F85121C90540F149
:10341000F28094F86221032A7DD8032B00F0EB8020
:1034200094F86131194603F00303012202FA03F311
:1034300084F850312346002201AD0139C9B2062972
:103440004FF0010008D800FA01F111F00B0F7ED106
:1034500011F0440F40F0C780B3F97211C911A9549B
:103460000233002A5DD09DF805209DF8043084F8D1
:10347000532184F8523104F5A87004F007FA02B021
:10348000BDE8F087D4F84C1104F1480701F1010EB2
:1034900007EBC1064FF004080EF01F0E4FF0000CB2
:1034A00007F831807380C6F804C0C4F84CE129687D
:1034B0002E686164166310F8011C002982D07F29F0
:1034C00086D1116B002983D02F68D4F84C6107F1A5
:1034D000010C04F1480E06F10109C1EB0C0C0EEBD6
:1034E000C60709F01F014FF004080EF83680C7F830
:1034F00004C07B80C4F84C112968616468E7551EDC
:1035000009686A426A41CE0584F8512188D594F849
:103510006121032A81D9102384F8503194F8611174
:1035200088E794F86211012287E700230F21012226
:1035300084F8501184F8512184F8523184F85331C1
:1035400004F5A87004F0A2F902B0BDE8F087B3F961
:10355000721140F2991000FB01F1091201F50041CE
:10356000A1F30821A9547BE7D5F800C0DFF890E06B
:10357000C6EB0C06B6F5167F7FF72AAFC7F1010739
:10358000FFB2274497F854714FB994F8776161639B
:103590000136216384F8776110F8011C8FE7D4F8B5
:1035A0004C7104F1480807F1010908EBC70C4FF012
:1035B000040A09F01F0908F837A0CCF80460ACF839
:1035C0000230C4F84C91DEF800606664116310F8B4
:1035D000011C74E70A6803F00101D20584F8511157
:1035E0007FF51BAF93E7B3F972110029B8BF4942C9
:1035F0000912A95434E794F8623194F8611112E782
:10360000840D0020F0B590F86051046983B000F19A
:103610001401012D0EC9ADF80040ADF80210ADF84F
:103620000420ADF8063000F06E82002D37D0B84C83
:103630000025637825701A1FD2B2012A40F2A980B2
:103640002A46206AB24BC50740F19F804010C558FA
:10365000D96918446B58AF49984794F8A5340025A8
:103660001A1FD2B2012A84F8A454A94E40F2048150
:103670002A4606F2A445D4F8C404A54BC10709D5CF
:1036800040102958D3F8C0342844CB58A249984751
:1036900003B0F0BDD3F8C03405EB6000F6E79D4EF3
:1036A0006A46B41E67786B46A7F1040E5FFA8EFE79
:1036B000BEF1010F03CA06F8025C3060716003CBF3
:1036C000C6F8A404C6F8A81440F2AE812A46206ABF
:1036D0008F4BC10740F1A4814010C558D9691844E7
:1036E0006B588C49984794F8A53400251A1FD2B21C
:1036F000012A84F8A454864EBAD8B6F8A8244FF606
:10370000E7518A42B6F8AA0400F265824FF6F43116
:103710008A4200F26382042B00F07F817C4F7F4E4F
:1037200007F596650FCE0FC596E80300D4F8B434BC
:103730000022042684F81C25DA0785E8030084F8B3
:10374000A56400F1148307F2A445D7F8B02405EB73
:103750006300904794F8A5146D4B0A1FD2B2012A5A
:1037600093F8A42440F2C683D4F8C4346849D80737
:1037700040F143825B10D1F8C014EE58E818765837
:103780006549B04794F8A42475E703EB6000DB6952
:1037900061E7A1884FF6E7529142E08831D9904223
:1037A00033D9052B3FF44CAF5D4F04F10C060FCF1E
:1037B0000FC697E8030023690522DF0784F87850D5
:1037C00086E80300627000F17783E26804EB63002F
:1037D000904761784E4B0A1FD2B2012A1A7840F204
:1037E0003584216A4A4BCD0740F174834910CE5885
:1037F000DD69C8187359474E3146984716F8022CB0
:103800001FE74FF6F432914203D94FF6F43290425B
:1038100030D8042B2ED03E4F404E07F10C050FCE72
:103820000FC596E8030023690426002285E80300FB
:10383000D807667084F8782000F18282FA6807EB76
:10384000630090476378324E1A1FD2B2012A40F2C9
:10385000F28216F8022B216A2D4BCF0740F17682B7
:103860004910CF58DD69C8187B592A49984716F87E
:10387000022CE6E60022E4E6B6F8A8144FF6E7527A
:103880009142B6F8AA044FD9904251D9052B3FF482
:10389000EFAEDFF88CE006F59667BEE80F000FC7C5
:1038A0009EE80300D6F8B434052287E80300D80761
:1038B00086F81C5586F8A52400F1508206F2A4452E
:1038C000D6F8B02405EB6300904794F8A514104B8C
:1038D0000A1FD2B2012A93F8A4243FF645AF002A6A
:1038E00040F0D183B3F8A804B3F8AA344FF6E756F2
:1038F000B04240F2CD83B34240F2568405293FF4F2
:1039000033AF08480521FFF767F994F8A4242BE7A3
:103910003C0400203E040020E2080020E8A2000849
:1039200000A30008E00800204FF6F432914204D9C9
:103930004FF6F432904200F25681042B6DD0B64F10
:10394000B64E07F596650FCE0FC596E80300D4F87E
:10395000B4340022042684F81C25DA0785E8030025
:1039600084F8A56400F1E38107F2A445D7F8B024F8
:1039700005EB6300904794F8A514A74B0A1FD2B239
:10398000012A93F8A4243FF6EFAE002A40F0048306
:10399000B3F8A804B3F8AA644FF6E753984240F28C
:1039A00009839E4240F2698305293FF4DDAEDFF8CA
:1039B00068E29B4F0EF596660FCF0FC697E803009F
:1039C000D4F8B4340527002286E80300DE0784F823
:1039D000A57484F81C2500F13885DEF8B024581051
:1039E0002844904794F8A5248B4B111FC9B2012994
:1039F00040F21385D4F8C434874ADF0740F10785C5
:103A00005B10D2F8C024E958E8188E5894F8A42422
:103A10008449B04794F8A424A6E6834D00222AE600
:103A200003EB6000DB695CE6A3884FF6E752934244
:103A3000E18800F29D804FF6F432934200F2D68086
:103A4000042F00F0D880DFF8D0E1744F0EF10C05A0
:103A50000FCF0FC597E80300236904270022677082
:103A6000DF0785E8030084F8782000F18981DEF81B
:103A70000C200EEB630090476178674B0A1FD2B2AF
:103A8000012A1A7800F29880002A40F06983988809
:103A9000DB884FF6E755A84240F23D83AB4240F247
:103AA0007D83052900F08880DFF86CE15C4F0EF122
:103AB0000C050FCF0FC597E80300236905270022E7
:103AC00085E80300DD07677084F8782000F132850F
:103AD000DEF80C2058102044904762784E4B111F9E
:103AE000C9B2012940F25685206A4B4BC70740F105
:103AF000428540101A58DB69D358227820444B493C
:103B00009847227858E0494E0098B41E6378306098
:103B10001A1F0198D2B2012A06F8025CC6F8A40462
:103B200040F2CA802A46216A3B4BCD076FD5491027
:103B3000CE58DD69C81873593C49984794F8A534A4
:103B40000122191FC9B2914284F8A424324E6FD9C0
:103B500006F2A445D4F8C4342F49D80752D55B10D7
:103B6000D1F8C014EC58E81864582E49A0478FE5E6
:103B700091423BD9052F3FF4A9ADDFF8A4E006F14F
:103B80000A07BEE80F000FC79EE80300236905225D
:103B900087E80300D90784F87850627000F1048246
:103BA000E26804EB6300904761781B4B0A1FD2B2B6
:103BB000012A1A7840F2DD82216A174BC80740F1CA
:103BC000C9804910CF58DD69C8187B5917499847F3
:103BD00016F8022C7BE588423FF658AE4FF6F432D9
:103BE00090427FF698AD00220F4D44E54FF6F43336
:103BF00099427FF625AF002269E5D1F8C06405EB54
:103C00006300BDE5D1F8C04405EB6300ADE703EB0D
:103C10006100DB6990E700BF3C040020E8A20008D7
:103C200000A30008E2080020E00800203E04002075
:103C3000B6F8A6144FF6E7508142B6F8A85440F201
:103C4000A880854240F23E81052B81D0A34F06F526
:103C500096650FCF0FC597E80300D6F8B434052753
:103C6000002285E80300D80786F8A57486F81C258D
:103C700000F1D48206F2A445D6F8B02405EB630027
:103C8000904794F8A524964B111FC9B2012940F220
:103C90001883D4F8C434924ADE0740F1AD835B1038
:103CA000D2F8C024E958E8188E5894F8A4248D4915
:103CB000B04794F8A4244DE762884FF6E7518A4252
:103CC000A08840F29080884240F2AF80052B3FF4FC
:103CD00029AF824F06F10A050FCF0FC597E8030001
:103CE00023690527002285E80300DD07677084F853
:103CF000782000F1AF82E26804EB630090476278BD
:103D0000774B111FC9B2012940F22B83226A744BF1
:103D1000D70740F167835210D558D969D0186B582E
:103D200016F8022C7049984716F8022CFBE65B1037
:103D300007F2A445D7F8B024E958E8188A5819E6DC
:103D40005B10D959FA68D8198A587AE503EB6100F3
:103D5000DB698AE503EB6100DB6937E75B1006F29C
:103D6000A445D6F8B024E958E8188A58ACE55B10A9
:103D700007F2A445D7F8B024E958E8188A58E8E4CF
:103D80005B1053F80E10DEF80C2003EB0E008A587F
:103D900071E64FF6F432914200F29480042B00F069
:103DA000F2804F4F514E07F596650FCE0FC596E83E
:103DB0000300D4F8B4340426002285E80300DD07AC
:103DC00084F8A56484F81C2500F18C8107F2A445D1
:103DD000D7F8B02405EB630090474548FFF726F974
:103DE00094F8A424B6E64FF6F4318A421DD8042B89
:103DF0001FD03B4F3D4E07F10C050FCE0FC596E887
:103E000003002369042600226670DE0785E80300AC
:103E100084F8782000F1A781FA6807EB63009047E7
:103E20002F48FFF703F922787DE64FF6F4329042EF
:103E3000DDD9012277E63278002A40F0B280B188DD
:103E4000F5884FF6E750814240F2DD80854240F22E
:103E50009D80052B00F09E80214F204E07F10C0520
:103E60000FCE0FC596E8030023690526002285E8DA
:103E70000300D907667084F8782000F17783FA6828
:103E80005810204490476278154B111FC9B2012980
:103E900040F25883226A124BD10740F142835210FC
:103EA000D558D969D0186B580F4E16F8022C3146E8
:103EB000984716F8022CCEE45B101959E2681819DD
:103EC0008A5885E44FF6F43295427FF667AF0122B7
:103ED000074D3FE603EB6100DB698CE400A30008BB
:103EE0003C040020E20800203E040020E8A2000874
:103EF000E0080020002A40F00981B3F8A804B3F8D4
:103F0000AA344FF6E756B04240F2F580B34240F291
:103F1000F78005293FF428ACDFF818E3C44F0EF50D
:103F200096660FCF0FC697E80300D4F8B434052780
:103F3000002284F8A574DF0786E8030084F81C25B6
:103F400000F15F82DEF8B02458102844904794F8BE
:103F5000A524B84B111FC9B2012940F2C982D4F877
:103F6000C404B44BC20740F1BF824010D3F8C02450
:103F70002B589B5894F8A4242844AF49984794F8A8
:103F8000A424FFF7F1BBAD4D0122E3E54FF6F43178
:103F90008D423CD9AA4E5EE4B3F8A604B3F8A864F7
:103FA000FAE47188B5884CE75B101959E268181972
:103FB0008A58F8E54FF6F43398425ED804293FF466
:103FC000D3ABDFF870E29F4F0EF596660FCF0FC6AA
:103FD00097E80300D4F8B4340427002286E80300ED
:103FE000DE0784F8A57484F81C2500F1E380DEF870
:103FF000B02405EB630090479048FFF717F894F85A
:10400000A424FFF7B1BB4FF6F4308142BED8042B95
:10401000C0D0884F8B4E07F10C050FCE0FC596E828
:10402000030023690022042684F87820DA0785E853
:104030000300667000F10881FA6807EB630090479F
:104040007C48FEF7F3FF7E4E227804E4002A40F01D
:10405000DC809888DB884FF6E755A84240F2B180B3
:10406000AB4240F2D58005293FF4BBAB7148052136
:10407000FEF7B2FD2278FFF7B4BB4FF6F4339E4251
:104080003FF672AB9AE7B3F8A604B3F8A8342DE470
:104090004FF6F436B04200F2878004293FF464AB57
:1040A000DFF890E1674F0EF596660FCF0FC697E8E1
:1040B0000300D4F8B4340427002286E80300D907AB
:1040C00084F8A57484F81C2500F19081DEF8B024F2
:1040D0005810284490475948FEF7A8FF94F8A424A4
:1040E000FFF742BB5B1007F2A445D7F8B024E958AC
:1040F000E8188A5870E64FF6F436B0427FF65EAFA5
:104100004FF6F43083423FF62FAB57E7B3F8A604DF
:10411000B3F8A834F5E64FF6F435A8423ED80429A2
:104120003FF44AADDFF80CE1464F0EF10C050FCF1E
:104130000FC597E8030023690427002285E80300E0
:10414000DD07677084F8782000F1B280DEF80C207B
:104150000EEB630090473748FEF768FF22782BE5A7
:1041600058889B8895E45B10D959FA68D8198A5801
:1041700055E6002A40F099809888DB884FF6E7558D
:10418000A8426DD9AB4240F2E68005293FF414AD58
:1041900028480521FEF720FD22780DE54FF6F43082
:1041A00083423FF609ADBAE74FF6F43083423FF65B
:1041B000DBAA72E75B10DEF8B024E958E8188A58E9
:1041C00019E74FF6F435A84222D804293FF409AB89
:1041D000184F1C4E07F10C050FCE0FC596E80300D3
:1041E0002369042600226670DE0785E8030084F850
:1041F000782000F19A81FA685810204490470D48C1
:10420000FEF714FF2278FFF7ECBA58889B8822E764
:104210004FF6F43083423FF6E4AAD6E75B1006F28D
:10422000A445D6F8B024E958E8188A5828E500BF14
:1042300000A300083C040020E2080020E008002061
:104240003E040020E8A200085B10D959FA68D8198A
:104250008A58F4E65B101959E26818198A584DE536
:104260004FF6F435A84276D804293FF4A5ACDFF820
:1042700014E3C34F0EF10C050FCF0FC597E80300F1
:1042800023690022042784F87820DA0785E80300F0
:10429000677000F12281DEF80C205810204490470E
:1042A000B848FEF7C3FE227886E458889B8865E705
:1042B0005B1053F80E10DEF80C2003EB0E008A584A
:1042C00048E793F8A414002940F0A081B3F8A8149B
:1042D000B3F8AA344FF6E750814200F28C814FF6D2
:1042E000F430814200F28181042A3FF4D2ACDFF83D
:1042F00094E2A34F0EF596660FCF0FC697E8030022
:10430000D4F8B4340427002286E80300D90784F8DF
:10431000A57484F81C2500F14182DEF8B024581001
:104320002844904794F8A524964B111FC9B201293F
:1043300040F2BC83D4F8C404924BC70740F1B28367
:104340004010D3F8C0242B589B5828448E4994F829
:10435000A42498479DE44FF6F43083423FF62CACFA
:1043600082E71978002940F03D819988DB884FF673
:10437000E750814200F22B814FF6F430814200F287
:104380002081042A3FF4C2ACDFF8F8E17C4F0EF143
:104390000C050FCF0FC597E80300236904270022FF
:1043A00085E80300D807677084F8782000F103825D
:1043B000DEF80C205810204490476278714B111F92
:1043C000C9B2012940F25F81206A6E4BC20740F1F9
:1043D000578140101A58DB69D35820446B49227822
:1043E000984793E403EB6200DB6999E45810DEF828
:1043F000B0142A5852586CE6D2F8C06405EB63003A
:1044000053E45810DEF8B0142A5852589DE5D2F8FB
:10441000C06405EB6300FFF7F9BA93F8A414002910
:1044200040F06082B3F8A814B3F8AA344FF6E7500E
:10443000814211D9834213D9052A3FF4DBAA54489B
:104440000521FEF7C9FBFFF7D5BA5810DEF8B01406
:104450002A585258FFF7C4BA4FF6F430814204D9B3
:104460004FF6F4318B423FF6C5AA042A3FF4C2AAA4
:10447000DFF810E1424F0EF596660FCF0FC697E8B2
:104480000300D4F8B4340427002286E80300D807D8
:1044900084F8A57484F81C2500F1D482DEF8B024D9
:1044A00058102844904794F8A524364B111FC9B2E0
:1044B000012940F2B182D4F8C404324BC20740F162
:1044C00073814010D3F8C0242B589B5828442E49A0
:1044D00094F8A4249847FFF78DBA58105EF800109E
:1044E000DEF80C208A58D9E6D3F8C034401041E5F4
:1044F00093F8A414002940F03882B3F8A814B3F854
:10450000AA344FF6E750814240F2F181834240F2F3
:10451000F281052A3FF423AD1D480521FEF75CFB1F
:104520001DE503EB6200DB69BEE458103958FA68F8
:104530008A5862E658105EF80010DEF80C208A589F
:10454000FFF7C9BA1978002940F032819988DB88D1
:104550004FF6E75081425ED9834260D9052A3FF485
:1045600099AC08480521FEF737FB93E458103958F9
:10457000FA688A5885E4DB694010FFF7BEBA00BFCD
:10458000E8A200083C040020E20800203E040020CD
:10459000E00800201978002940F04C819988DB88D8
:1045A0004FF6E750814240F20D81834240F20E8186
:1045B000052A3FF499AAAF480521FEF70DFBFFF746
:1045C00093BA4FF6F4318B423FF6A0ABD9E6834263
:1045D000F7D9052A3FF49AABA6480521FEF7FCFA65
:1045E000FFF794BB59889B88C1E64FF6F4318B42A4
:1045F0003FF64FAB78E68342F7D9052A3FF449AB43
:104600009D480521FEF7E8FAFFF743BBB3F8A6146F
:10461000B3F8A8345EE64FF6F430814204D94FF681
:10462000F4318B423FF636AC042A3FF433AC914F61
:10463000924E07F10C050FCE0FC596E803002369D3
:104640000022042684F87820DA0785E803006670E3
:1046500069D4FA685810204490476278854B111F3E
:10466000C9B201294DD9206A824BC5071ED5401019
:104670001A58DB69D358204481492278984709E4C5
:10468000DB694010A9E61978002975D19988DB8883
:104690004FF6E75081420CD983420ED9052A3FF4E8
:1046A00093AE74480521FEF797FA8DE6DB6940105A
:1046B000E1E74FF6F430814204D94FF6F4318B42F2
:1046C0003FF682AE042A3FF47FAEDFF8A8E16B4FDD
:1046D0000EF10C050FCF0FC597E8030023690427DF
:1046E000002285E80300D907677084F8782046D453
:1046F000DEF80C205810204490475E48FEF796FCE8
:1047000062E61978002941D19988DB884FF6E75095
:1047100081420DD983420FD9052AA4D055480521DD
:10472000FEF75AFA9FE758103958FA688A5892E704
:104730004FF6F430814203D94FF6F4318B4292D8D0
:10474000042A90D04B4F4D4E07F10C050FCE0FC5EC
:1047500096E803002369042600226670DE0785E8D8
:10476000030084F8782014D4FA6858102044904745
:104770004048FEF75BFC76E759889B8888E758102D
:104780005EF80010DEF80C208A58B4E759889B8840
:10479000BCE758103958FA688A58E7E75810DEF82D
:1047A000B0142A585258BBE5D3F8C03440108DE6F7
:1047B00059889B88CCE658105EF80010DEF80C2073
:1047C0008A58F8E54FF6F430814204D94FF6F431B7
:1047D0008B423FF689A9042A3FF486A9DFF894E0CA
:1047E000264F0EF10C050FCF0FC597E80300236984
:1047F0000427002285E80300D807677084F8782032
:1048000030D4DEF80C205810204490476278194BC1
:10481000111FC9B2012913D9206A164BC2070CD542
:1048200040101A58DB69D35820441549227898471C
:10483000FFF75AB959889B88B2E6DB694010F3E765
:104840001978002944D19988DB884FF6E7508142D6
:1048500018D983421AD9052ADED006480521FEF769
:10486000BBF9D9E758105EF80010DEF80C208A5822
:10487000CAE700BF3C040020E0080020E8A20008CE
:104880003E0400204FF6F430814203D94FF6F43154
:104890008B42C1D8042ABFD0DFF8C4E2AF4F0EF17B
:1048A0000C050FCF0FC597E80300236904270022EA
:1048B00085E80300D907677084F878200BD4DEF808
:1048C0000C20581020449047A548FEF7AFFBA3E703
:1048D00059889B88B9E758105EF80010DEF80C2064
:1048E0008A58EFE7B3F8A614B3F8A8349EE54FF65C
:1048F000F430814204D94FF6F4318B423FF62FABAE
:10490000042A3FF42CABDFF858E2944F0EF596667C
:104910000FCF0FC697E80300D4F8B4340427002261
:1049200086E80300DE0784F8A57484F81C253AD4D1
:10493000DEF8B02458102844904794F8A524884BFA
:10494000111FC9B2012919D9D4F8C404844BC10775
:1049500010D54010D3F8C0242B589B5828448149C7
:1049600094F8A4249847FFF7FABAB3F8A614B3F85A
:10497000A834C6E5D3F8C0344010EFE793F8A41488
:1049800000293ED1B3F8A814B3F8AA344FF6E75083
:1049900081420ED9834210D9052AD5D0724805210B
:1049A000FEF71AF9D0E75810DEF8B0142A5852581A
:1049B000C1E74FF6F430814203D94FF6F4318B4210
:1049C000C2D8042AC0D0DFF898E1644F0EF596668D
:1049D0000FCF0FC697E80300D4F8B43404270022A1
:1049E00086E80300D80784F8A57484F81C250DD444
:1049F000DEF8B0245810284490475B48FEF716FBB9
:104A0000A2E7B3F8A614B3F8A834BFE75810DEF84D
:104A1000B0142A585258EEE793F8A41400295BD139
:104A2000B3F8A814B3F8AA344FF6E75081420FD96F
:104A3000834211D9052A3FF43EAD4B480521FEF7CC
:104A4000CBF838E55810DEF8B0142A58525828E54B
:104A50004FF6F430814204D94FF6F4318B423FF6E1
:104A60002AAD042A3FF427ADDFF8F4E03B4F0EF502
:104A700096660FCF0FC697E80300D4F8B434042726
:104A8000002286E80300D90784F8A57484F81C2561
:104A900027D4DEF8B0245810284490473248FEF757
:104AA000C5FA08E5D3F8C03440104EE493F8A414D6
:104AB000002947D1B3F8A814B3F8AA344FF6E75049
:104AC000814214D9834216D9052A3FF433AC2648D3
:104AD0000521FEF781F82DE4B3F8A614B3F8A83445
:104AE000A2E75810DEF8B0142A585258D4E74FF60F
:104AF000F430814204D94FF6F4318B423FF61AACC0
:104B0000042A3FF417ACDFF858E0144F0EF5966610
:104B10000FCF0FC697E80300D4F8B434002204275F
:104B200084F81C25DA0786E8030084F8A5740ED4FF
:104B3000DEF8B0245810284490470B48FEF776FA68
:104B4000FFF7F8BBB3F8A614B3F8A834B6E75810CB
:104B5000DEF8B0142A585258EDE700BFE8A200086A
:104B60003C040020E2080020E008002090F86031BA
:104B70002DE9F047012B154640F2FA8040F2A44897
:104B800008FB01F8754A01EB4503754F12F803E085
:104B9000014408EB070494F8782081F86151BEF1D4
:104BA00002014842484184F801E0CAB9C0B104F1A9
:104BB0008003C4F8482103F18002002143F8041B5C
:104BC0009A42FAD104F59273002142F8041B9342F1
:104BD000FAD104F5A471002243F8042B9942FAD1CA
:104BE000604B0EEB4E0604F10C0903EBC6064D4676
:104BF00084F878000FCE0FC596E80300BEF1020FCF
:104C000085E803004CD02069C30758D540102258CE
:104C1000E3682044D358984763781A1FD2B2012A18
:104C20003ED818F80720002A54D060884FF6E75184
:104C30008842A58854D98D4240F28980052B00F026
:104C40008A80494E4FF0050C4FF0000E4D460FCEB6
:104C500084F801C084F878E00FC596E8030085E881
:104C600003002369DE0700F1C982E26804EB6300F8
:104C7000904763781A1FD2B2012A18F8072040F231
:104C8000CA82236AD80740F1BF825B10E558E16908
:104C9000E0186E58A51C2946B04718F8072002E016
:104CA00018F80720A51C206AC3070CD5401021580E
:104CB000E3692044CB5829469847BDE8F08704EBC8
:104CC0006000E368A7E704EB6000E36929469847C2
:104CD000BDE8F087A0884FF6E7518842E588AAD85A
:104CE0004FF6F431884232D8042B34D01F4E4FF0A7
:104CF000040C4FF0000E4D460FCE84F801C084F82E
:104D000078E00FC596E8030085E803002369D9071A
:104D100040F199815B10E158E268E0188A589047A9
:104D200063781A1FD2B2012A40F2068218F80720CF
:104D3000A51C236AD90740F1EF815B10E658E169B1
:104D4000E01876582946B04718F80720ABE74FF629
:104D5000F4318D42C8D9A51CA5E700BF50DF00087B
:104D60003C04002088A2000800A30008E8A2000874
:104D7000BC4EBD4C16F812E080F8622180F861212B
:104D800094F87830BEF10202D2F1000C84F801E010
:104D90005CEB020CDBB9BCF1000F18D0C4F8483151
:104DA00004F5807104F18003002243F8042B8B4248
:104DB000FAD103F12401002243F8042B8B42FAD1EB
:104DC00003F12401002243F8042B8B42FAD1DFF8CF
:104DD000A882DFF894A20EEB4E0908EBC9090AF18C
:104DE0000C07B9E80F000FC799E80300BEF1020FE6
:104DF00084F878C087E803000FD0DAF81000C30702
:104E000078D4DAF80C300AEB60009847637896495A
:104E10001A1FD2B2012A40F287802278206A924B70
:104E2000C10778D54010C758D96918447B588F49B5
:104E300006EB450598476F7894F81C35B7F1020CDE
:104E4000DCF1000E84F8A5745EEB0C0E8649DBB92C
:104E5000BEF1000F18D0C1F8EC3501F2245301F275
:104E6000A451002243F8042B8B42FAD103F1240110
:104E7000002243F8042B8B42FAD103F124010022D3
:104E800043F8042B8B42FAD1DFF8DCC107EB47066D
:104E900008EBC6060CF596650FCE0FC596E8030025
:104EA000022F84F81CE585E8030000F0D880DCF8C8
:104EB000B404C70726D40CF2A445DCF8B03405EBE3
:104EC0006000984794F8A53467491A1FD2B2012AA6
:104ED00071D994F8A424D4F8C404634BC4071ED534
:104EE00040102958D3F8C0342844CB58604998471B
:104EF000BDE8F087401050F80A20DAF80C30504432
:104F0000D35882E740100CF2A4452A58DCF8B0349C
:104F10002844D358D5E703EB6000DB6987E7D3F873
:104F2000C03405EB6000E1E70A78002A00F09480C5
:104F300048888F884FF6E751884240F2C5808F42FB
:104F400040F2F480052B3FF469AFDFF81CC1DFF8B5
:104F500024E10CF10C07BEE80F000FC79EE8030028
:104F600023694FF0050E002287E80300DF0784F86D
:104F700001E084F8782000F19E81DCF80C200CEB35
:104F8000630090476278384B111FC9B2012940F283
:104F9000B781226A344BD70740F19D815210D75810
:104FA000D969D0187B58314F17F8022C39469847E9
:104FB00017F8022C32E791F8A424002A47D0B1F860
:104FC000A604B1F8A8644FF6E751884256D98E423C
:104FD00040F2A680052B3FF47EAFDFF88CE0254F32
:104FE0000EF596660FCF0FC697E80300D4F8B434D9
:104FF0000527002286E80300DE0784F8A57484F8FC
:105000001C2500F16181DEF8B02405EB63009047B8
:1050100094F8A524144B111FC9B2012940F2C08194
:10502000D4F8C434104ADF0740F159815B10D2F83C
:10503000C024E958E8188E5894F8A4240C49B047C5
:1050400094F8A42447E704EB6300E26867E6B1F84C
:10505000A804B1F8AA64B6E78888CF886AE70CF29A
:10506000A44536E750DF00083C0400203E04002041
:10507000E208002000A3000888A200084FF6F431DF
:1050800088424DD8042B3FF426AFDFF808E3BF4F2A
:105090000EF596660FCF0FC697E80300D4F8B43428
:1050A0000427002286E80300DE0784F8A57484F84C
:1050B0001C2500F1C480DEF8B02405EB63009047A6
:1050C000B348FDF7B3FF04E74FF6F43188422DD81B
:1050D000042B3FF4A3AEDFF8BCC2DFF8B0E20CF162
:1050E0000C07BEE80F000FC79EE8030023694FF0CE
:1050F000040E002287E80300D80784F801E084F852
:10510000782000F1A380DCF80C200CEB63009047C2
:10511000A048FDF78BFF80E604EB6300E66911E62B
:105120004FF6F4318E423FF6D6AEABE74FF6F43190
:105130008F423FF673AECBE718F80720002A67D1FD
:10514000A088E5884FF6E751884233D98D4240F276
:105150008680052B50D0904E4FF0050C4FF0000E7E
:105160004D460FCE84F801C084F878E00FC596E86C
:10517000030085E803002369DA0700F17081E26823
:1051800004EB6300904763781A1FD2B2012A18F823
:10519000072040F27981A51C236ADE0740F1558182
:1051A0005B10E658E169E01876582946B04718F8D0
:1051B0000720BEE54FF6F431884250D8042B1BD0AF
:1051C000724D4FF0040E00260FCD84F801E084F8F4
:1051D0007860A9E80F0095E8030089E803002369D7
:1051E000D80700F18780E26804EB6300904720460F
:1051F000FDF71CFF18F80720A51C9AE55B10E15885
:10520000E268E0188A5833E504EB6300E66941E59B
:105210006088A58896E7002A4AD1A188E5884FF6DC
:10522000E750814220D985425ED9052B3FF429AD54
:1052300020460521FDF7D0FC18F8072021E55B107A
:10524000DEF8B024E958E8188A5838E75B1053F8BC
:105250000C10DCF80C2003EB0C008A5857E74FF6D3
:10526000F4318D42AAD9C7E74FF6F43081423BD8DA
:10527000042B3FF406AD454D4FF0040E00260FCD34
:1052800084F801E084F87860A9E80F0095E803004D
:1052900089E803002369DD0700F1DB80E26804EBA5
:1052A000630090472046FDF7C1FE18F80720E8E4A8
:1052B0006188A588B3E75B1053F80C10DCF80C206C
:1052C00003EB0C008A585CE65B10DEF8B024E9586A
:1052D000E8188A589BE603EB6200DB6963E6D2F8C4
:1052E000C06405EB6300A7E64FF6F4318D423FF64C
:1052F000C8ACBDE75B10E158E268E0188A5875E772
:105300001978002940F09E809988DB884FF6E75095
:10531000814200F28D804FF6F430814200F2FD8030
:10532000042A3FF436AEDFF86CC0DFF860E00CF121
:105330000C07BEE80F000FC79EE8030023694FF07B
:10534000040E002287E80300D80784F801E084F8FF
:10535000782000F1F180DCF80C20581020449047B0
:1053600062780C4B111FC9B2012940F21981206AE1
:10537000084BC20740F1D78040101A58DB69D35858
:10538000204406492278984703E600BFE8A20008B7
:10539000E00800203C04002000A300083E04002098
:1053A00093F8A41400296AD1B3F8A814B3F8AA3466
:1053B0004FF6E750814258D84FF6F430814200F260
:1053C000A680042A3FF42CAEDFF8E4E2B74F0EF5D6
:1053D00096660FCF0FC697E80300D4F8B4340427BD
:1053E000002286E80300D80784F8A57484F81C25F9
:1053F00000F19C80DEF8B02458102844904794F8BF
:10540000A524AB4B111FC9B2012940F2DC80D4F8AE
:10541000C404A74BC20740F196804010D3F8C024C3
:105420002B589B582844A34994F8A4249847F7E59F
:10543000834272D9052A3FF4ACAD9D480521FDF7A2
:10544000CBFBA6E559889B8860E704EB6300E6691F
:10545000ABE65B10E158E268E0188A5821E75B1080
:10546000E158E268E0188A588CE683424FD9052A51
:105470003FF4D6AD90480521FDF7AEFBD0E5B3F87B
:10548000A614B3F8A83493E7002A72D1A088E18863
:105490004FF6E755A8425FD84FF6F435A84256D8E4
:1054A000042B3FF478AE814E4FF0040C4FF0000E09
:1054B0004D460FCE84F801C084F878E00FC596E819
:1054C000030085E80300206910F0010F4FEA600037
:1054D0001BBF2258E368E368D35820449847637899
:1054E0001A1FD2B2012A18F8072045D9206AA51C34
:1054F00010F0010F4FEA60001BBF2158E369E36918
:10550000CB5820442946984718F8072044E64FF620
:10551000F4318B423FF684AD53E74FF6F4318B42C2
:105520003FF637ADFCE6DB69401029E75810DEF89E
:10553000B0142A58525860E758105CF80010DCF894
:105540000C208A580AE7D3F8C03440106AE74FF6B7
:10555000F4308142A4D91EE6A942F8D9052B3FF4C4
:105560001AAE20460521FDF737FBA51C18F80720C9
:1055700012E66088A1888BE7002A40F0A680A08808
:10558000E1884FF6E755A84234D9A94236D9052B10
:10559000ACD020460521FDF71FFB18F80720A5E732
:1055A000197800297FD19988DB884FF6E75081422E
:1055B0004DD983424FD9052A3FF4D9AE3C48052145
:1055C000FDF70AFBD3E693F8A414002940F0AA8063
:1055D000B3F8A814B3F8AA344FF6E750814277D94C
:1055E000834279D9052A3FF412AF33480521FDF7EC
:1055F000F3FA0CE74FF6F435A84204D94FF6F4302D
:1056000081423FF673AF042B3FF470AF274D4FF04C
:10561000040E00260FCD84F801E084F87860A9E834
:105620000F0095E8030089E80300206910F0010FDE
:105630004FEA60001BBF2258E368E368D358204458
:1056400098472046FDF7F2FC18F807204EE74FF682
:10565000F430814204D94FF6F4318B423FF687AEE5
:10566000042A3FF484AEDFF848C0DFF840E00CF1D4
:105670000C07BEE80F000FC79EE8030023694FF038
:10568000040E002287E80300D90784F801E084F8BB
:10569000782013D4DCF80C2058102044904704489C
:1056A000FDF7C4FC63E659889B887EE7E8A2000802
:1056B0003C040020E2080020E008002058105CF8BC
:1056C0000010DCF80C208A58E7E76088A18858E7CA
:1056D0004FF6F430814204D94FF6F4318B423FF655
:1056E00096AE042A3FF493AEDFF858E0134F0EF560
:1056F00096660FCF0FC697E80300D4F8B43404279A
:10570000002286E80300D90784F8A57484F81C25D4
:105710000DD4DEF8B0245810284490470848FDF70F
:1057200085FC74E6B3F8A614B3F8A83454E758100F
:10573000DEF8B0142A585258EEE700BFE8A200087D
:10574000E00800203C0400202DE9F84FC0F8881143
:10575000074600F5A87002F035F807F5AA7002F0C8
:10576000CDF807F5AC7001F033FFCF493A46086831
:1057700007F1100301300860002142F8041B934236
:10578000FAD107F12008002243F8042B9845FAD1FA
:1057900007F130094346002243F8042B9945FAD11A
:1057A00007F2811B5B4607F2851A002203F8012BE2
:1057B0005345FAD187F87621BC484FF4804104F074
:1057C0000FFBD0F1010038BF0020B94D87F88C01E4
:1057D00007F2631640F2FF3E07F26F142B4607CB29
:1057E0003346B26030607160002213F8011B0A4436
:1057F000A34292B2F9D1AB89E989934233D0AD4B40
:10580000103D9D420EF1FF3EE8D10023A7F8703114
:1058100087F8603187F8613187F8623187F86E3137
:10582000A2484FF4005104F0DBFA40B997F86E310A
:10583000384683F0010387F86E31FDF725FD3846C1
:10584000FDF7E0FE3846002197F86121FFF78EF959
:105850003846012197F86221FFF788F9002387F87D
:105860007731BDE8F88F7145C9D197F8651197F880
:10587000633197F864010EF1010E082287F8621176
:10588000A7F870E187F8603187F8610107F5B37117
:10589000002A55D1023BDBB2012BC1D84FF48073F3
:1058A00048F8043BC145F9D100230BF8013BD3452F
:1058B000FAD1814C984604F2A4453E4696F87831D8
:1058C00004EB08091B02A9F8023061787A4B0A1F21
:1058D000D2B2012A1A7840F29B80216A764BC8071F
:1058E0003FD5491051F803C0D3F81CE0C8185CF844
:1058F0000E307249984796F87C216F4B1202A9F836
:10590000A62494F8A5140A1FD2B2012A93F8A4245D
:105910002BD9D4F8C4346849D8071DD55B10D1F809
:10592000C01455F803E0E8185EF801C008F1020859
:105930006349E047B8F1080F06F10106BED16FE7F1
:1059400007F5BC7004F0F0FB97F86031023BDBB266
:10595000012B3FF665AFA1E7D1F8C0C405EB6300AA
:10596000E4E703EB6100DB69C3E7002A40F0F18064
:10597000B3F8A804B3F8AA344FF6E75E704540F2D6
:10598000A580734540F22E810529C2D0DFF8289109
:10599000DFF834C109F5966EBCE80F00AEE80F00E1
:1059A0009CE80300D4F8B43400224FF0050C84F8CE
:1059B0001C25DA078EE8030084F8A5C400F1CF8126
:1059C000D9F8B02405EB6300904794F8A5143A4B3E
:1059D0000A1FD2B2012A93F8A42400F2A880002A58
:1059E00040F0C781B3F8A804B3F8AA344FF6E75ED5
:1059F000704540F2C381734540F2C481052900F02F
:105A0000968030480521FDF7E7F894F8A4248EE04D
:105A1000002A40F0E4809888DB884FF6E75E704506
:105A200040F29C80734540F2E38005293FF455AF76
:105A3000DFF884A0DFF890C00AF10C0EBCE80F007C
:105A4000AEE80F009CE80300236900224FF0050C2C
:105A500084F87820DA078EE8030084F801C000F1AA
:105A6000D780DAF80C200AEB630090476178124B7C
:105A70000A1FD2B2012A1A7800F2A080002A40F050
:105A800075819888DB884FF6E75E704540F20483A5
:105A9000734540F20583052900F0908006480521F2
:105AA000FDF79AF8227889E0840D0020001001406B
:105AB000F0FF0108F0BF01083C0400203E04002074
:105AC000E2080020E008002000A300084FF6F43EA2
:105AD000704500F2878004293FF41BAFDFF8309354
:105AE000DFF83CC309F5966EBCE80F00AEE80F0086
:105AF0009CE80300D4F8B43400224FF0040C84F87E
:105B00001C25DA078EE8030084F8A5C47BD55B105A
:105B1000D9F8B024E958E8188A58904794F8A514A1
:105B2000BB4B0A1FD2B2012A93F8A4247ED9D4F821
:105B3000C434B749D80774D55B10D1F8C01455F8F0
:105B400003E0E8185EF801C0B249E04794F8A424E5
:105B5000DFE6B3F8A604B3F8A8340DE74FF6F43E39
:105B6000704545D804293FF4B8AEDFF8A4A2DFF8A9
:105B7000B0C20AF10C0EBCE80F00AEE80F009CE8C2
:105B80000300236900224FF0040C84F87820DA0720
:105B90008EE8030084F801C030D55B1053F80A107A
:105BA000DAF80C2003EB0A008A5890476178984B8A
:105BB0000A1FD2B2012A1A7840F28A80216A944BD5
:105BC000C80740F18180491051F803C0D3F81CE0A8
:105BD000C8185CF80E309049984722787DE65888BE
:105BE0009B881AE74FF6F43083423FF692AE72E795
:105BF0004FF6F43083423FF670AEB3E70AEB630032
:105C0000DAF80C20D1E7D9F8B02405EB630084E77B
:105C10005B1053F80A10DAF80C2003EB0A008A58DC
:105C200023E7D1F8C0C405EB63008DE7002A40F0FC
:105C30004D83B3F8A804B3F8AA344FF6E75E704575
:105C400040F20F83734540F2108305293FF46FAF94
:105C5000DFF8BC91DFF8CCC109F5966EBCE80F0007
:105C6000AEE80F009CE80300D4F8B4344FF0050C04
:105C700000228EE80300D80784F8A5C484F81C2508
:105C800000F1E882D9F8B02405EB6300904794F85E
:105C9000A5145F4B0A1FD2B2012A93F8A42440F244
:105CA0008982D4F8C4345A49D80740F17E825B1007
:105CB000D1F8C01455F803E0E8185EF801C0554962
:105CC000E04794F8A42432E703EB6100DB6982E744
:105CD000002A40F03B819888DB884FF6E75E7045EC
:105CE00040F20681734540F2078105293FF466AF13
:105CF000DFF81CA1DFF82CC10AF10C0EBCE80F0084
:105D0000AEE80F009CE8030023694FF0050C002269
:105D10008EE80300D80784F801C084F8782000F1E9
:105D2000DE80DAF80C200AEB630090476178384B8C
:105D30000A1FD2B2012A1A7840F2BD80216A344B80
:105D4000C80740F1B480491051F803C0D3F81CE0F3
:105D5000C8185CF80E303049984722782EE75B105F
:105D6000D9F8B024E958E8188A582DE658889B8855
:105D700089E6B3F8A604B3F8A83437E64FF6F43E44
:105D8000704504D94FF6F43083423FF6D0AE042973
:105D90003FF4CDAEDFF87890DFF884C009F5966E59
:105DA000BCE80F00AEE80F009CE80300D4F8B43460
:105DB0004FF0040C00228EE80300D80784F8A5C435
:105DC00084F81C256CD4D9F8B02405EB6300904707
:105DD00094F8A5140E4B0A1FD2B2012A93F8A424FA
:105DE0003FF65FAF002A56D1B3F8A804B3F8AA343F
:105DF0004FF6E75E704517D9734519D905293FF469
:105E000050AF06480521FCF7E7FE94F8A42448E7C4
:105E10003C040020E20800203E040020E0080020AE
:105E2000E8A2000800A300084FF6F43E704504D92C
:105E30004FF6F43083423FF634AF04293FF431AFDC
:105E4000DFF84893DFF84CC309F5966EBCE80F0005
:105E5000AEE80F009CE80300D4F8B4344FF0040C13
:105E600000228EE80300D90784F8A5C484F81C2515
:105E70000AD4D9F8B02405EB63009047C248FDF777
:105E8000D5F894F8A4240CE75B10D9F8B024E958AD
:105E9000E8188A58F1E7B3F8A604B3F8A834A7E7DE
:105EA0005B10D9F8B024E958E8188A588FE703EB5B
:105EB0006100DB694FE7002A40F094809888DB8816
:105EC0004FF6E75E70454DD973454FD905293FF42C
:105ED00035AFAE480521FCF77FFE22782EE75B1038
:105EE00053F80A10DAF80C2003EB0A008A581CE772
:105EF0004FF6F43E704504D94FF6F43083423FF636
:105F00005DAE04293FF45AAEDFF880A2DFF884C208
:105F10000AF10C0EBCE80F00AEE80F009CE803008D
:105F2000236900224FF0040C84F87820DA078EE809
:105F3000030084F801C00CD4DAF80C200AEB6300EB
:105F400090479248FDF772F8227837E658889B8888
:105F5000C3E65B1053F80A10DAF80C2003EB0A00D2
:105F60008A58EDE74FF6F43E704504D94FF6F43009
:105F700083423FF6E3AE04293FF4E0AEDFF80CA223
:105F8000DFF810C20AF10C0EBCE80F00AEE80F00FB
:105F90009CE8030023694FF0040C00228EE8030004
:105FA000D90784F801C084F8782034D4DAF80C20BA
:105FB0000AEB630090476178744B0A1FD2B2012A42
:105FC0001A7816D9216A714BC8070ED5491051F8B5
:105FD00003C0D3F81CE0C8185CF80E306C49984731
:105FE0002278ABE658889B886AE703EB6100DB699F
:105FF000F4E7002A44D19888DB884FF6E75E7045C5
:1060000012D9734514D90529DCD060480521FCF765
:10601000E3FD2278D6E75B1053F80A10DAF80C207B
:1060200003EB0A008A58C5E74FF6F43E704503D9E2
:106030004FF6F4308342C5D80429C3D0DFF84CA111
:10604000DFF850C10AF10C0EBCE80F00AEE80F00FB
:106050009CE80300236900224FF0040C84F87820A8
:10606000DA078EE8030084F801C00CD4DAF80C20BB
:106070000AEB630090474548FCF7D8FF2278A1E778
:1060800058889B88B9E75B1053F80A10DAF80C209F
:1060900003EB0A008A58EDE74FF6F43E704504D949
:1060A0004FF6F43083423FF689AD04293FF486ADC4
:1060B000DFF8D8A0DFF8DCC00AF10C0EBCE80F0056
:1060C000AEE80F009CE8030023694FF0040C0022A7
:1060D0008EE80300D80784F801C084F878205BD4E8
:1060E000DAF80C200AEB630090476178274B0A1F0F
:1060F000D2B2012A1A783FF621AE002A40D1988800
:10610000DB884FF6E75E704535D973453FF6DEAE66
:106110004FF6F43083423FF611AE04293FF40EAE41
:10612000DFF868A0DFF86CC00AF10C0EBCE80F00C5
:10613000AEE80F009CE8030023694FF0040C002236
:106140008EE80300D90784F801C084F8782009D4C8
:10615000DAF80C200AEB630090470C48FCF766FF66
:106160002278EBE55B1053F80A10DAF80C2003EB09
:106170000A008A58F0E74FF6F43E7045CDD9C7E7DC
:1061800058889B88BDE700BFE00800203C04002041
:106190003E040020E8A200085B1053F80A10DAF869
:1061A0000C2003EB0A008A589EE7D1F8C0C405EB27
:1061B000630084E5002A40F0E680B3F8A804B3F851
:1061C000AA344FF6E75E704540F2D78073453FF63C
:1061D00015AE4FF6F43083423FF663AD04293FF429
:1061E00060ADDFF8C491DFF8CCC109F5966EBCE86C
:1061F0000F00AEE80F009CE80300D4F8B4344FF071
:10620000040C00228EE80300D90784F8A5C484F8A2
:106210001C257CD4D9F8B02405EB6300904794F892
:10622000A514614B0A1FD2B2012A93F8A42459D9AC
:10623000D4F8C4345C49D80743D55B10D1F8C014F6
:1062400055F803E0E8185EF801C05849E04794F8B3
:10625000A42426E55B10D9F8B024E958E8188A5838
:1062600014E54FF6F43E704504D94FF6F4308342FE
:106270003FF65DAC04293FF45AACDFF82C91DFF80F
:1062800034C109F5966EBCE80F00AEE80F009CE83B
:106290000300D4F8B43400224FF0040C84F81C2519
:1062A000DA078EE8030084F8A5C414D4D9F8B02422
:1062B00005EB630090473E48FCF7B8FE94F8A42431
:1062C00035E4D1F8C0C405EB6300BEE7B3F8A6041B
:1062D000B3F8A834B1E45B10D9F8B024E958E81851
:1062E0008A58E7E7002A53D1B3F8A804B3F8AA34D0
:1062F0004FF6E75E704511D9734513D9052997D03C
:106300002B480521FCF768FC94F8A42490E75B1067
:10631000D9F8B024E958E8188A587FE74FF6F43ED8
:10632000704503D94FF6F430834281D804293FF4F5
:106330007FAFDFF87490DFF87CC009F5966EBCE89B
:106340000F00AEE80F009CE80300D4F8B43400223C
:106350004FF0040C84F81C25DA078EE8030084F85B
:10636000A5C41AD4D9F8B02405EB630090471048AF
:10637000FCF75CFE94F8A4245AE74FF6F43E70450F
:106380007FF62CAF25E7B3F8A604B3F8A83418E7D6
:10639000B3F8A604B3F8A834AAE75B10D9F8B02480
:1063A000E958E8188A58E1E73C040020E208002098
:1063B000E0080020E8A2000890F88C312DE9F047B1
:1063C00004461BB14D8845B1BDE8F0874B88032BCF
:1063D000FAD8DFE803F0244E676CD0F88801FBF7A9
:1063E000AFFE204684F8605184F8615184F8625110
:1063F00084F86E51FCF748FF2046FDF703F920466C
:10640000294694F86121FEF7B1FB2046012194F85A
:106410006221FEF7ABFB84F88C51BDE8F0874B6836
:10642000B3F5167F50DC90F86031012B40F22F81DC
:1064300003F00103C3F1030380F8603100F1300180
:1064400000F120034FF4807243F8042B9942F9D1F4
:1064500004F2811304F28511002203F8012B8B4210
:10646000FAD12046FDF7CEF82046BDE8F047FCF70C
:106470000BBF90F860314968032B0CBF90F8622184
:1064800090F86121B1F5167F16DD043202F00702A3
:10649000991E2046C9B2FEF769FB2046BDE8F047C9
:1064A000FCF7F2BE002380F84030BDE8F0870023FF
:1064B00080F84130BDE8F087032A02F1010202F0C2
:1064C000030288BF0432E3E790F8601190F862316C
:1064D000DFF82483C44D18F813E0023101F0030102
:1064E00080F8601180F8613195F87820BEF10200E3
:1064F000D0F1000C85F801E05CEB000CDAB9BCF1DE
:10650000000F18D0C5F8482105F1800305F580710A
:10651000002243F8042B8B42FAD103F1240100221C
:1065200043F8042B8B42FAD103F12401002243F8F3
:10653000042B8B42FAD1AD4FDFF8ACA20EEB4E0923
:1065400007EBC9090AF10C06B9E80F000FC699E874
:106550000300BEF1020F85F878C086E8030010D072
:10656000DAF81030D90700F19780DAF80C200AEB3E
:10657000630090476B789C491A1FD2B2012A40F2FF
:10658000F2802A78296A984BCE0740F1978049100B
:1065900051F803E0DE69C8185EF806309449984760
:1065A00094F8612195F81C3508EB420898F801E051
:1065B0008D49BEF10200D0F1000C85F8A5E45CEB3A
:1065C000000CDBB9BCF1000F18D0C1F8EC3501F2BA
:1065D000245301F2A451002243F8042B8B42FAD138
:1065E00003F12401002243F8042B8B42FAD103F17A
:1065F0002401002243F8042B8B42FAD1DFF8E88112
:106600000EEB4E0307EBC30708F596660FCF0FC6D8
:1066100097E80300BEF1020F85F81CC586E8030069
:1066200000F0B580D8F8B434D9073ED408F2A446B7
:10663000D8F8B02406EB6300904795F8A5346A4972
:106640001A1FD2B2012A42D995F8A424D5F8C4342D
:106650006549D80736D55B10D1F8C014F558F01845
:106660006D586449A84704F1200304F130014FF448
:10667000807243F8042B9942F9D104F2811304F299
:106680008511002203F8012B8B42FAD1E9E6C3F110
:10669000010380F86031E4E65B1053F80A10DAF881
:1066A0000C2003EB0A008A5863E75B1008F2A4464B
:1066B000D8F8B024F158F0188A58BDE703EB610010
:1066C000DB696BE7D1F8C05406EB6300C9E791F8CA
:1066D000A424002A40F0BE80B1F8A804B1F8AA743E
:1066E0004FF6E751884240F28D808F4240F2B780EA
:1066F000052BABD0DFF8F0C0DFF800E10CF59667B2
:10670000BEE80F000FC79EE80300D5F8B43400229E
:106710004FF0050E85F81C25DA0787E8030085F899
:10672000A5E400F1B880DCF8B0245810304490475C
:1067300095F8A5242C4B111FC9B2012940F2B58050
:10674000D5F8C404284BC20740F1AB804010D3F801
:10675000C02433589B5895F8A424304425499847C1
:1067600095F8A42472E70A78002A3AD18888CE885E
:106770004FF6E75188420DD98E4276D9052B3FF46A
:1067800001AF19480521FCF727FA2A78FAE608F242
:10679000A44659E74FF6F431884266D8042B3FF4FB
:1067A000F1AEDFF844C0DFF858E00CF10C06BEE8AB
:1067B0000F000FC69EE803002B6900224FF0040E65
:1067C00085F87820DA0786E8030085F801E052D4DE
:1067D000DCF80C200CEB630090470348FCF726FC28
:1067E000CFE648888E88C3E73C04002088A20008D2
:1067F0003E040020E208002050DF000800A300084B
:10680000E8A200084FF6F431884228D8042B3FF460
:106810001DAFDFF8F8C1DFF8FCE10CF59667BEE8C4
:106820000F000FC79EE80300D5F8B4344FF0040EF4
:10683000002287E80300DF0785F8A5E485F81C251A
:1068400022D4DCF8B02406EB630090476E48FCF7D6
:10685000EDFBF9E6B1F8A604B1F8A87440E74FF6ED
:10686000F4318F423FF6F2AED0E74FF6F4318E426C
:106870003FF688AE92E75B1053F80C10DCF80C2062
:1068800003EB0C008A58A7E75B10DCF8B024F15842
:10689000F0188A58D9E75810DCF8B014325852581A
:1068A00044E7D3F8C034401055E793F8A41489B9ED
:1068B000B3F8A814B3F8AA344FF6E75081420ED9C2
:1068C000834210D9052A3FF43BAF4F480521FCF71E
:1068D00083F935E7B3F8A614B3F8A834ECE74FF61C
:1068E000F430814204D94FF6F4318B423FF628AFA1
:1068F000042A3FF425AFDFF814C1DFF818E10CF5E6
:106900009667BEE80F000FC79EE80300D5F8B434C1
:106910004FF0040E002287E80300DF0785F8A5E4A6
:1069200085F81C2534D4DCF8B02458103044904746
:1069300095F8A524354B111FC9B2012913D9D5F8F3
:10694000C404324BC1070AD54010D3F8C0243358D1
:106950009B5830442E4995F8A4249847F0E6D3F884
:10696000C0344010F5E793F8A414002941D1B3F8DE
:10697000A814B3F8AA344FF6E75081420ED98342E7
:1069800010D9052ADBD020480521FCF725F9D6E7E8
:106990005810DCF8B01432585258C7E74FF6F430AC
:1069A000814203D94FF6F4318B42C8D8042AC6D0AD
:1069B000DFF858C0DFF85CE00CF59667BEE80F0022
:1069C0000FC79EE80300D5F8B4344FF0040E002240
:1069D00087E80300D80785F8A5E485F81C250DD4C1
:1069E000DCF8B0245810304490470748FCF71EFBF1
:1069F000A5E7B3F8A614B3F8A834BCE75810DCF840
:106A0000B01432585258EEE7E00800203C04002051
:106A1000E2080020E8A200082DE9F84F90F88C3138
:106A200004460D46FBB14B884A680344121283F8B2
:106A3000782190F8793190F87821803B5B10803A8A
:106A400003EBC202D0F8883152421A8090F87B11D1
:106A500090F87A2180394910803A01EBC202524203
:106A60005A80BDE8F88F90F86081B8F1030F4FD8D5
:106A7000DFE808F0508E02024988A8F10208CAB285
:106A800002EB88095FFA89F9A14499F878C16B682B
:106A900040F2A440ACEB232C1FFA8CFC00FB08F85E
:106AA0001FFA8CF010F4004F18BFCCF10000A34F78
:106AB00094F86EC108EB070618BF80B2BCF1000F56
:106AC00006D0214491F8811111B900B202281FDCCF
:106AD000717806EB4202081FC0B20128538018F8F3
:106AE000072040F2358106F1020A306AC3076FD5EC
:106AF00040103158F3693044CB58514698476B6881
:106B000001221B1289F878316B881C4484F881219A
:106B1000BDE8F88F894E887873784A68191FC9B222
:106B200006EB400001294280327855D9306A834B08
:106B3000C70749D54010C758D96918447B588049C0
:106B4000984796F8A534A878191F6A68C9B27B4F90
:106B500006EB40000129A0F8A62497F8A42440F2EF
:106B6000988007F2A447D6F8C404744BC10726D511
:106B700040103958D3F8C0343844CB58714998473D
:106B80006A886B6814441B1284F87831BDE8F88F6A
:106B90004B886A4E012B64D996F8A514981E0B1FDA
:106BA0006A68C0B2DBB206EB4000012BA0F8A62455
:106BB00096F8A42440F2148106F2A447D3E7D3F850
:106BC000C03407EB6000D9E703EB6000DB69B6E790
:106BD00006EB6000F36990E7002A40F0DD81B188A0
:106BE000F7884FF6E750814240F28081874240F2B9
:106BF0001082052B9AD0DFF844C1DFF850E10CF188
:106C00000C07BEE80F000FC79EE8030033694FF082
:106C1000050E002287E80300DF0786F801E086F80A
:106C2000782000F16F82DCF80C200CEB63009047B9
:106C30007278424B111FC9B2012940F2B682326A02
:106C40003E4BD10740F17F825210D758D969D018F6
:106C50007B583B4F17F8022C3946984717F8022CFF
:106C600064E74A68717806EB4303081FC0B2012845
:106C70005A80327840F2E581316A304BC80740F1E2
:106C8000BF814910CF58DE69C818BB592C499847B5
:106C900076E7002A40F08381B7F8A814B7F8AA7401
:106CA0004FF6E750814240F24B81874240F2AC817F
:106CB000052B40D0DFF884C0DFF890E00CF5966734
:106CC000BEE80F000FC79EE80300D6F8B4344FF0BB
:106CD000050E002287E80300D90786F8A5E486F8A8
:106CE0001C2500F118820CF2A447DCF8B02407EB55
:106CF0006300904796F8A524104B111FC9B20129D3
:106D000040F23C82D6F8C4340C4AD90740F1F581F0
:106D10005B10D2F8C024F958F81851F802C096F860
:106D2000A4240849E04796F8A4241CE74FF6F4335E
:106D30009F4240F27981044F15E700BF3C040020D8
:106D40003E040020E2080020E008002000A3000824
:106D5000002A40F02981B088B6F806E04FF6E753E4
:106D6000984240F225819E4540F2668105293FF414
:106D7000BAAE4FF0050B06F10C0ADFF8F8C386F83F
:106D800001B0D6464FF0000BBCE80F0086F878B093
:106D9000AEE80F009CE803008EE803003369D807D3
:106DA00000F1C281F26806EB6300904773781A1F06
:106DB000D2B2012A18F8072040F20B8206F1020A2B
:106DC000336AD90740F1C3815B10F158D6F81CE053
:106DD000F01851F80E305146984718F8072084E60D
:106DE000002A40F02481B6F8A834B6F8AA744FF609
:106DF000E750834240F21381874297D905299AD000
:106E0000DFF864C3DFF86CE30CF59667BEE80F00AB
:106E10000FC79EE80300D6F8B4344FF0050E0022E9
:106E200087E80300DF0786F8A5E486F81C2500F153
:106E300081810CF2A447DCF8B02407EB6300904793
:106E400096F8A524C84B111FC9B201293FF65AAFC5
:106E500093F8A414002940F08A82B3F8A814B3F878
:106E6000AA344FF6E750814200F278824FF6F430B0
:106E7000814200F27682042A3FF444AFDFF8E882D0
:106E8000DFF8F4C208F5966EBCE80F00AEE80F001C
:106E90009CE80300D6F8B4344FF0040C00228EE8CE
:106EA0000300D80786F8A5C486F81C2500F1648283
:106EB000D8F8B02458103844904796F8A524AA4B27
:106EC000111FC9B2012940F28282D6F8C404A64B30
:106ED000C20740F178824010D3F8C0243B589B5839
:106EE0003844A24996F8A42498470BE74FF6F430AB
:106EF000814200F28E80042B3FF418AEDFF868C2A6
:106F0000DFF874E20CF10C07BEE80F000FC79EE833
:106F10000300336900224FF0040E86F87820DA0768
:106F200087E8030086F801E000F1A780DCF80C2078
:106F30000CEB630090478C48FCF778F83278F5E565
:106F40004FF6F43081425FD8042B3FF4F4AEDFF803
:106F500018C2DFF824E20CF59667BEE80F000FC7F1
:106F60009EE80300D6F8B4344FF0040E002287E800
:106F70000300D80786F8A5E486F81C2574D40CF223
:106F8000A447DCF8B02407EB630090477848FCF78F
:106F90004DF896F8A424E6E57188B78821E6B7F89D
:106FA000A614B7F8A8747BE67088B6F804E0D5E6B6
:106FB0004FF6F43398423FD804293FF494ADDFF8FC
:106FC000B8C14FF0040B4FF0000A06F10C0EBCE8FC
:106FD0000F0086F801B086F878A0AEE80F009CE8B4
:106FE00003008EE803003369DA077AD4F26806EB0F
:106FF000630090473046FCF719F818F8072072E54F
:1070000003EB6100DB6941E64FF6F4318F429BD917
:1070100091E64FF6F4318F423FF688AD6BE74FF6BD
:10702000F43083423FF682AE042990D183E6B6F86D
:10703000A634B6F8A874DAE64FF6F4339E45BBD909
:1070400051E5002A4AD1B388F7884FF6E7508342CA
:107050001CD987424BD905293FF40EAE4248052181
:10706000FBF7BAFD327807E65B100CF2A447DCF8B8
:10707000B024F958F8188A5887E75B1053F80C10B9
:10708000DCF80C2003EB0C008A5853E74FF6F43081
:1070900083422CD804293FF4EFADDFF8CCC0DFF8F1
:1070A000D8E00CF10C07BEE80F000FC79EE8030004
:1070B00033694FF0040E002287E80300DF0786F8EB
:1070C00001E086F8782046D4DCF80C200CEB630055
:1070D00090472548FBF7AAFF3278CDE57388B7883B
:1070E000B3E75B10F158F268F0188A5881E74FF661
:1070F000F4339F423FF6C0ADCCE7D2F8C0C407EBF3
:1071000063000CE65B1053F80C10DCF80C2003EB6A
:107110000C008A588BE55B100CF2A447DCF8B02415
:10712000F958F8188A58E4E55B10F158F268F0183D
:107130008A583AE65B100CF2A447DCF8B024F95800
:10714000F8188A587BE603EB6200DB6981E506EB01
:107150006300F3693FE65B1053F80C10DCF80C2079
:1071600003EB0C008A58B3E73C040020E20800203F
:10717000E008002000A30008E8A2000893F8A41487
:10718000002969D1B3F8A814B3F8AA344FF6E75030
:10719000814236D9834240F2D580052A3FF4B2AD10
:1071A000C5480521FBF718FDACE5197800297FD10A
:1071B0009988DB884FF6E750814252D9834240F2EA
:1071C000C780052A3FF43BADBC480521FBF704FD11
:1071D00035E5002A40F0AE80B088F1884FF6E75ED2
:1071E000704568D9714540F2A880052B3FF4E6ADA3
:1071F00030460521FBF7F0FC06F1020A18F80720DB
:10720000DEE54FF6F430814200F29C80042A3FF420
:1072100079ADDFF8A882DFF8A8C208F5966EBCE861
:107220000F00AEE80F009CE80300D6F8B43400224B
:107230004FF0040C86F81C25DA078EE8030086F868
:10724000A5C400F19F80D8F8B02458103844904766
:107250009948FBF7EBFE55E5B3F8A614B3F8A8344C
:1072600094E74FF6F430814272D8042A3FF4E7AC39
:10727000DFF848C2DFF848E20CF10C07BEE80F0067
:107280000FC79EE8030033694FF0040E002287E821
:107290000300D80786F801E086F8782078D4DCF877
:1072A0000C205810304490478448FBF7BFFEC6E4DA
:1072B00059889B887EE74FF6F43E70453DD8042BF5
:1072C0003FF47CAD4FF0040EDFF8F4C186F801E026
:1072D0004FF0000BD646BCE80F0086F878B0AEE859
:1072E0000F009CE803008EE80300306910F0010FE6
:1072F0004FEA60001BBF3258F368F368D35830443C
:10730000984773781A1FD2B2012A18F8072046D975
:10731000306A06F1020A10F0010F4FEA60001BBF4D
:107320003158F369F369CB5830445146984718F8FF
:10733000072045E57088B18850E74FF6F430814268
:10734000BDD93BE54FF6F4318B423FF6DBAC5DE750
:107350004FF6F4318B423FF672AC86E783423FF63C
:107360001CAF4FF6F4318B423FF6CCAC83E5B3F85B
:10737000A614B3F8A83474E55810D8F8B0143A58E5
:10738000525898E55810D8F8B0143A5852585DE75A
:1073900058105CF80010DCF80C208A5882E7002AAC
:1073A00040F08780B088F1884FF6E75E704524D9B9
:1073B000714526D9052BABD030460521FBF70CFCD7
:1073C00018F80720A4E7D3F8C034401088E593F8F4
:1073D000A414002976D1B3F8A814B3F8AA344FF650
:1073E000E750814237D9834239D9052A3FF46DAD40
:1073F00031480521FBF7F0FB67E54FF6F43E704599
:1074000003D94FF6F430814282D8042B80D0DFF8C4
:10741000B0E04FF0000C4FF0040BBEE80F0086F810
:1074200078C086F801B0AAE80F009EE803008AE859
:107430000300306910F0010F4FEA60001BBF3258A3
:10744000F368F368D358304498473046FBF7EEFDB5
:1074500018F807205CE74FF6F430814204D94FF664
:10746000F4318B423FF631AD042A3FF42EADDFF804
:107470004C80DFF84CC008F5966EBCE80F00AEE813
:107480000F009CE80300D6F8B4344FF0040C00223F
:107490008EE80300D90786F8A5C486F81C2516D403
:1074A000D8F8B0245810384490470348FBF7BEFD85
:1074B0000BE57088B18877E7E00800203C040020E5
:1074C000E8A20008B3F8A614B3F8A83487E7581068
:1074D000D8F8B0143A585258E5E700BF2DE9F0410A
:1074E000804682B000F5AB7704460026236837F863
:1074F000021FC3EBC3052269236A0D44ED109918DE
:107500008D42C3EB0202256002DA954200DD4BB9E1
:1075100040466946ADF802600195FFF77DFA4023C9
:10752000256123620136042E04F10404DED102B089
:10753000BDE8F08130B5D0F84C21D0F8483183B0A7
:10754000D31ADA06044618BF6D4608D12AE022B3E2
:10755000D4F84C21D4F84831D31ADB0622D0D4F821
:10756000483104EBC302483292E8030085E8030087
:107570009DF80020013303F01F03042AC4F84831AA
:10758000E5D1019BCBB9BDF80230022B1AD0032BF9
:10759000DED1012384F84130DAE720466946FFF75F
:1075A0003BFAD5E7094B626C19688A1AB2F57A7F03
:1075B00001D91B68636403B030BD20466946FEF7FD
:1075C000FBFEC5E7012384F84030C1E7840D0020AD
:1075D0002DE9F04393B0012400250F2301A90746AC
:1075E0003C48ADF804308DF806408DF80750DFF8C0
:1075F000F09002F09BFB384802F040FA04264FF46A
:10760000807C4FF4806E20224FF40053324807A94B
:107610004FF08008CDF834C0CDF838E00F921093C9
:10762000089709950B951195CDF81C900A96CDF801
:10763000308002F0A3FA2146274802F0BFFA27481B
:1076400002F042F94FF460224FF40063234802A98C
:107650000492059302958DF80C408DF80D408DF83D
:10766000186002F067F922461C480321072302F044
:10767000B7F902210A461948072302F0B1F9214659
:1076800016480322072302F0ABF929463246134875
:10769000072302F0A5F91148214602F06FF90F48BF
:1076A00002F080F90D4802F083F90028FAD10B4866
:1076B00002F082F9094802F085F90028FAD107485A
:1076C000012102F065F90548012102F07FF913B0AC
:1076D000BDE8F0830008014008000240002401409A
:1076E0004C2401402DE9F041234C86B08046694688
:1076F00020464FF4805202271023204EADF8002080
:107700008DF8033001258DF8027002F00FFB204642
:1077100069464FF4204218230024ADF800208DF86C
:1077200003308DF8025002F001FB4FF4827C4FF4DD
:10773000006E4FF400720723304601A9ADF806C071
:10774000ADF808E0ADF80E20ADF81430ADF80A70D1
:10775000ADF80440ADF80C40ADF81040ADF8124063
:1077600002F0B4FB3046294602F0D0FB88F8044012
:1077700006B0BDE8F08100BF000C014000380040B9
:1077800030B583B001A94FF48053022548240B483B
:10779000ADF804308DF806508DF8074002F0C6FAB7
:1077A0004FF4006301A906488DF806508DF8074094
:1077B000ADF8043002F0BAFA03B030BD0008014061
:1077C000000C0140F0B52E4E89B002256946F02329
:1077D00010272C482C4CADF800308DF802508DF855
:1077E000037002F0A3FA694630464FF480638DF8C7
:1077F00002508DF80370ADF8003002F097FA0322C2
:10780000694630461823ADF8002008268DF802504E
:107810008DF80330002502F089FA3F232046ADF8A9
:107820000830ADF80460ADF80A50ADF806508DF898
:107830000C5002F033FC204601A902F075FB012731
:107840006023204604A9ADF81030ADF81650ADF80D
:107850001850ADF8127002F08BFB2046314602F052
:1078600025FC204604A902F0CBFB2046314602F05D
:1078700025FC2046394602F0F9FB09B0F0BD00BFF7
:10788000000C0140000801400004004038B5194DCB
:10789000817804468908284602F01AFCE1782846D7
:1078A000890802F017FC627813484FF4806102F0F7
:1078B0009DFA227805F58235284602F00102102152
:1078C00002F094FA2278284602F00202202102F007
:1078D0008DFA2278284602F00402402102F086FA4E
:1078E0002278284602F008028021BDE8384002F0E4
:1078F0007DBA00BF00040040000C014030B50422F6
:1079000083B0FF2102F076FC0225482401A9102350
:107910001148ADF804308DF806508DF8074002F09C
:1079200005FA01A94FF480730C48ADF804308DF8C6
:1079300006508DF8074002F0F9F94FF4C04301A951
:1079400007488DF806508DF80740ADF8043002F076
:10795000EDF903B030BD00BF000C0140000801404C
:1079600000100140F8B510210446C578134802F014
:1079700037FA6D00EDB22843E0704FF48071104883
:10798000A77802F02DFA7F000E4DFFB23843A070A9
:107990004FF400512846267802F022FA7600F6B21B
:1079A0006378304320704FF4804128465D0002F038
:1079B00017FAEDB228436070F8BD00BF000C01401B
:1079C000000801400010014030B5144685B00D4656
:1079D00001F0B2FE2CB14FF000604FF4005101F005
:1079E00069FF44F61D20012102F04CFA44F2020026
:1079F000012102F053FA0120014602F037FA012179
:107A0000174802F0F9F94FF4404002F025FA00243B
:107A10001448ADF80850ADF80440ADF80A40ADF890
:107A200006408DF80C4002F039FB01A90D4802F028
:107A30007BFA01210B4802F019FB4FF4A06001F022
:107A4000F7FE1922012368468DF801408DF80240A7
:107A50008DF800208DF8033001F0F4FE05B030BD44
:107A600000013000002C014070B4084B084A09485E
:107A7000F0265A60002580F82360072401219D60CC
:107A80000A461C60044870BC02F0FEBA10E000E038
:107A90003F19010000ED00E0002C01402DE9F00F3E
:107AA000002340F6FD7B4FF4845A4FF0010940F665
:107AB0000C584FF44067C0264FF4786547F2817444
:107AC0004FF0300C4FF44851FF22C0F82CB0A0F812
:107AD0003EA080F83C90C0F8048087618662C5654E
